:100000000C942A000C943E000C9452000C943C007A
:100010000C943C000C943C000C943C000C943C0070
:100020000C943C000C943C000C943C000C943C0060
:100030000C943C000C943C000C943C000C943C0050
:100040000C943C000C943C000C9466000C943C0016
:100050000C943C0011241FBECFE5D4E0DEBFCDBF21
:1000600020E0A0E6B0E001C01D92A236B207E1F7A1
:100070000E947A000C94AD000C9400001F920F9225
:100080000FB60F9211248F939F9381E090E090938D
:100090006100809360009F918F910F900FBE0F9031
:1000A0001F9018951F920F920FB60F9211248F93E5
:1000B0009F9382E090E090936100809360009F9115
:1000C0008F910F900FBE0F901F9018951F920F9257
:1000D0000FB60F9211248F939F9383E090E090933B
:1000E0006100809360009F918F910F900FBE0F90E1
:1000F0001F90189517BA11BA80E884BB85B78F6036
:1001000085BF84B7806484BF8BB7806E8BBF15BA00
:100110001BBA18BA20E8809160009091610081308C
:10012000910539F08230910571F00097C1F725BB38
:10013000F2CF85B3805885BB8FE493EC0197F1F73C
:1001400000C00000E8CF85B3805885BB8FE493ECF6
:0E0150000197F1F700C00000DECFF894FFCF5A
:00000001FF
