S00D0000313030487A2E73726563C4
S11300000C942A000C9434000C9434000C943400A6
S11300100C9434000C9434000C9434000C9434008C
S11300200C9434000C9434000C9434000C9434007C
S11300300C9434000C9434000C9434000C9434006C
S11300400C9434000C9434000C9434000C9434005C
S11300500C94340011241FBECFE5D4E0DEBFCDBF25
S11300600E9436000C943F000C9400008FEF87BB75
S113007083B78D6183BF82B78C6982BFFFCFF89449
S1050080FFCFAC
S9030000FC
